:020000040800F2
:10000000C04F0020450100084D0100084F010008C5
:1000100051010008530100085501000800000000CC
:100020000000000000000000000000005701000870
:100030005901000800000000930B0008B5470008B4
:100040005F0100085F0100085F0100085F01000810
:100050005F0100085F0100085F0100085F01000800
:100060005F0100085F0100085F0100085F010008F0
:100070005F0100085F0100085F0100085F010008E0
:100080005F0100085F0100085F0100085F010008D0
:100090005F0100085F0100085F0100085F010008C0
:1000A0005F0100085F0100085F0100085F010008B0
:1000B0005F0100085F0100085F0100085F010008A0
:1000C0005F0100085F0100085F0100085F01000890
:1000D0005F010008F97C00085F010008417D00080D
:1000E0005F0100085F0100085F0100085F01000870
:1000F0005F0100085F0100085F0100085F01000860
:100100005F0100085F0100085F0100085F0100084F
:100110005F0100085F0100085F0100085F0100083F
:100120005F0100085F0100085F0100085F0100082F
:10013000DFF80CD000F07EFC00480047359C00083A
:10014000C04F00200648804706480047FEE7FEE70C
:10015000FEE7FEE7FEE7FEE7FEE7FEE7FEE7FEE777
:100160008D7B00083101000872B6704762B6704797
:10017000EFF3108072B6704780F31088704730BF7D
:10018000704720BF7047B0FA80F0704790FAA0F037
:10019000B0FA80F0704790FAA0F0704740EA01038F
:1001A0009B0703D009E008C9121F08C0042AFAD22D
:1001B00003E011F8013B00F8013B521EF9D27047F1
:1001C000D2B201E000F8012B491EFBD27047002299
:1001D000F6E710B513460A4604461946FFF7F0FF46
:1001E000204610BD421E12F8013F002BFBD111F832
:1001F000013B02F8013B002BF9D1704730B50546B1
:100200002A460B4612F8010B13F8014B08B1A04225
:10021000F8D01CB1002802D06D1CF1E7284630BD93
:1002200030B504460020034600E05B1C934203D235
:10023000E05CCD5C401BF8D030BDF0B480EA010238
:10024000D40F4200B2EB410F02D2024608461146DB
:100250004A0042D0C30DDDB2C1F3C752AD1A202D02
:1002600035DAC1F3160141F4000204B15242C5F17E
:10027000200602FA06F12A411044B3EBD05F23D0E6
:10028000C4B1012DA0EBC35009DCF0BC4FF000421B
:1002900002EAC352DBB200F5000000F08ABA400067
:1002A00000F1807000EBC350A0F1807040EAD17083
:1002B000490009E0490841EAC071A0EBC35000F5CC
:1002C0000000400800EBC350F0BC00F069BA614286
:1002D000012202EB4101001BF6E7F0BC704781F000
:1002E0000041AAE780F00040A7E780EA010210B5CC
:1002F00002F00043400022D04A001FD0010E01EB63
:100300001261C0F35600C2F3560240F4000042F4FA
:100310000002A0FB022000047F39140400D0401C1E
:1003200050EA124001D44000491EC2B20C0604EB50
:10033000D010401C4008802A02D003E0002010BDED
:1003400020F00100002900DA0020184310BD30B46D
:1003500080EA010202F0004530F0004221F0004046
:1003600013D090B1C30DD40DC2F31601C0F3160023
:10037000E41A41F4000140F400027D34914201D3BB
:10038000641C00E04900002C02DA30BC00207047F9
:100390004FF400000023914201D3891A034340081F
:1003A0004FEA4101F7D151B1914202D14FF00041E2
:1003B00005E002D24FF0010101E06FF0010103EB13
:1003C000C450284430BC00F0EBB92DE9FE4F804604
:1003D00081EA0300C00F0C46009021F0004123F099
:1003E0000045B8EB0200A94105D24046214690469F
:1003F0001C460B46024623F00040104347D0270D11
:10040000C7F30A00C3F30A510290401A0190402832
:100410006BDAC3F3130040F4801B0098924620B1BE
:100420000023D2EB030A63EB0B0B01985946C0F192
:100430004002504600F093F906460D465046594694
:10044000019A00F09BF910EB08006141002487EA53
:10045000115284EAE7731A4340D0009A62B3019ABA
:10046000012A4FEA075215DC001B61EB02014FF035
:10047000004202EA0752CDE90042001C41F580111A
:1004800032462B4600F0D2F903B0BDE8F08F40466B
:100490002146F9E7001B61EB0201001C41F58013C6
:1004A00000185B412018A2F5001747EB030140EA52
:1004B000D570B6196D4111E06D084FEA360645EA70
:1004C000C0754FEA0752001B61EB0201001C41F5A9
:1004D000801149084FEA30000019514132462B463D
:1004E00003B0BDE8F04F00F092B90098012240003F
:1004F0000023D0EB020263EBE073009821464FEA41
:10050000E074B8EB000061EB0401E9E783F000431D
:100510005BE781F0004158E72DE9FE4F81EA0304D3
:1005200004F0004421F0004100944FF0000B23F050
:10053000004350EA01045ED052EA03045BD0C3F3E7
:100540000A54C1F30A552C44A4F2F3340194A0FBDD
:100550000254C1F3130141F48011C3F3130343F4B4
:10056000801301FB024400FB034E840A970A44EA0D
:10057000815447EA8357A4FB076802958D0A05FB5F
:1005800007854FEA932C04FB0C542705029D4FEA84
:10059000065847EA1637B5EB08056EEB070C870ED1
:1005A000920E47EA811742EA8312A7FB0201B6EBDB
:1005B0000B0164EB00042B0D43EA0C335E1844EB93
:1005C0001C50DA465146E7FB0201C5F313044FEA1B
:1005D0000B3343EA14534FEA0432019C43EA060307
:1005E000A4F10C040294009CCDE900B400F01EF9C3
:1005F00003B0BDE8F08F00200146F9E7C10F80EAA3
:10060000E0700844CA079623002100F0D2B8962370
:100610000022114600F0CDB800F0004220F000406A
:10062000C10DC0F3160040F400007F2901DA00205C
:100630007047962903DCC1F19601C84001E0963964
:100640008840002AF4D04042704720F00040C10D9D
:10065000C0F3160040F400007F2901DA0020704743
:10066000962903DCC1F19601C8407047963988404D
:10067000704700F0004230F000400AD0C10D01F593
:100680006071C0F3160042EA0151C20840071143ED
:10069000704700200146704701F0004330B421F05C
:1006A000004150EA010206D00A0DA2F56072C1F3C2
:1006B0001301002A02DC30BC00207047440F44EADA
:1006C000C104C100E01830BC00EBC25000F068B8B3
:1006D00030B50B46014600202022012409E021FA12
:1006E00002F59D4205D303FA02F5491B04FA02F50F
:1006F0002844151EA2F10102F1DC30BD2DE9F05FA6
:100700000546002092469B46884606468146402480
:100710001BE0284641464746224600F09DF95346D5
:100720005A46C01A914110D311461846224600F08D
:1007300016F82D1A67EB01084F46224601200021CA
:1007400000F00DF817EB00094E41201EA4F1010442
:10075000DFDC484631462A464346BDE8F09F202A62
:1007600004DB203A00FA02F1002070479140C2F108
:10077000200320FA03F3194390407047202A06DB38
:10078000CB17203A41FA02F043EAE07306E041FA5F
:1007900002F3D040C2F1200291400843194670474D
:1007A0000029A8BF7047401C490008BF20F0010085
:1007B000704710B4B0FA80FC00FA0CF050EA010463
:1007C00004BF10BC704749B1CCF1200421FA04F4F5
:1007D00011FA0CF118BF012121430843A3EB0C01CE
:1007E000CB1D4FEA00614FEA102042BF002010BC31
:1007F000704700EBC35010440029A4BF10BC7047E1
:10080000401C490008BF20F0010010BC704710B523
:10081000141E73F1000408DA401C41F10001921823
:100820005B411A4301D120F0010010BD2DE9F04DCC
:1008300092469B4611B1B1FA81F202E0B0FA80F221
:1008400020329046FFF78BFF04460F4640EA0A002D
:1008500041EA0B0153465A46084313D0114653EA66
:10086000010019D0C8F14002504600F0F5F80546E5
:100870000E46504659464246FFF771FF084305D0E1
:10088000012004E020463946BDE8F08D00200543F4
:1008900046EAE0762C4337430A986305E40AA0EB66
:1008A00008000022FD0A44EA47540A3002D500201D
:1008B0000146E9E7010510196941DDE9084500191C
:1008C0006941BDE8F04DA2E72DE9F04D81EA03044E
:1008D00004F0004B21F0004514464FF0000A23F0CD
:1008E000004150EA050220D054EA01021DD0C5F3B0
:1008F0000A570246C5F31303C1F31300C1F30A56A6
:1009000040F4801543F48013A7EB0608101BD6466D
:1009100008F2FD3873EB050002D308F1010801E08D
:1009200092185B41B8F1000F03DA00200146BDE8E0
:10093000F08D00204FF48011064684460EE0171B10
:1009400073EB050705D3121B63EB050306434CEA63
:10095000010C49084FEA300092185B4150EA010748
:10096000EDD152EA030012D082EA040083EA0501C5
:10097000084305D0101BAB4106D20122002306E03C
:1009800000224FF0004302E06FF0010253101AEB17
:1009900006004CEB085110EB0A0041EB0B01BDE8DF
:1009A000F04DFFF734BF70B521F0004303430CD086
:1009B000C1F30A550024D5EB040564EB0403D617F4
:1009C000AD1AB34102DB0020014670BD201841EB97
:1009D000025170BDC1F30A52C1F3130140F2FF335B
:1009E00041F480119A4202DA00200146704740F239
:1009F00033439A42A2F2334202DC524200F02CB856
:100A0000FFF7ADBE30B5041E71F1000404DB4FF0FA
:100A10000044404264EB0101141E73F1000405DB45
:100A20001C464FF00043524263EB0403994208BF57
:100A3000904230BD064C074D06E0E06840F00103EF
:100A400094E8070098471034AC42F6D3FFF774FBE4
:100A500058BD000878BD0008202A04DB203A21FA9E
:100A600002F00021704721FA02F3D040C2F12002C7
:100A700091400843194670472DE9F04D00231A466E
:100A80001B1A8A4103DB00200146BDE8F08DC1F34B
:100A90000A52C1F3130141F480154FF0000BD10746
:100AA00002D100186D41521E0027044640F2FF118A
:100AB000384601EB620A3E468046024600204FF46B
:100AC0008011FFF7C9FFC2197141BB1846EB010045
:100AD000B4EB030C75EB000C04D3E41A65EB0005D2
:100AE00017460E46241908F101006D41804634284E
:100AF000E3DDF91946EB0600091BA84103D24FF0CC
:100B0000FF32134601E0002213461BEB070046EBC1
:100B10000A51BDE8F04DFFF77ABE70B58C1810F899
:100B2000015B15F0070301D110F8013B2A1106D132
:100B300010F8012B03E010F8016B01F8016B5B1E4C
:100B4000F9D12B0705D40023521E0DD401F8013B27
:100B5000FAE710F8013BCB1A921C03E013F8015B93
:100B600001F8015B521EF9D5A142D8D3002070BD17
:100B700018484FF0FF010170002080F309881648E3
:100B8000016881F3088815484FF08051016062B612
:100B9000FEE772B6EFF3098028B1203880E8F00F45
:100BA0000F490968086000B50E4880475DF804EBFE
:100BB0000D480E490A78027009480D490A6802601A
:100BC000106890E8F00F203080F309884EF0040E92
:100BD00062B6704722ED00E08C01002004ED00E0D9
:100BE000840100208542000812010020130100202A
:100BF000880100200EB50EE002A800214FF4827398
:100C00000A46CDE900100121034801F06BFD4FF4C5
:100C1000967000F06BFEEFE7880200200EB500250D
:100C200000BFC7E102A8002301AA19460090184698
:100C300002F016FF04462078412874D160785428C9
:100C4000FBD1E07810B1E0782028F6D1A0783528E3
:100C500070D00CDC322819D004DC002874D0312884
:100C600073D10DE033283CD03428F9D14DE036283B
:100C70006CD037286BD038286AD03928F0D134E1CD
:100C800002AA0021CC4803F0C5F982E1CB480078E4
:100C9000012806D1CA480078C0F10100C84908708F
:100CA00003E0C8A1CC4807F098F902AA002164200B
:100CB00003F03AFBC248007801280DD1C7A1C6480D
:100CC00007F08BF90020C849087002AB00221146DA
:100CD000C64803F0EFFC03E0C5A1BF4807F07DF96B
:100CE00057E1C7480078C0F10100C54908700846BF
:100CF0000078012804D1C3A1B74807F06EF903E0DA
:100D0000C3A1B54807F069F943E1C4480078C0F1D0
:100D10000100C24908700846007830B9C0A1AE4849
:100D200007F05BF905E035E104E0C0A1AA4807F04F
:100D300054F92EE1E07820282DD1A07948B1BFA147
:100D4000A54807F04AF92AE0DDE01DE128E038E097
:100D500097E0607978B1607930382179303901EBEA
:100D6000810100EB4100BC49087008460178BBA036
:100D700007F042F913E0207948B120793038B649BC
:100D8000087008460178B5A007F036F907E0B7A06B
:100D900007F032F903E0B5A18F4807F01EF9F8E03B
:100DA000B6480078401CB549087008460078042809
:100DB00001D101200870B1480178B1A007F01CF9F9
:100DC000E7E0A5480178B2A007F016F902AA0021D1
:100DD000322003F0A9FAA9480178B0A007F00CF975
:100DE00002AA0021322003F09FFA854800780128EA
:100DF00004D184A1784807F0F0F803E084A1764894
:100E000007F0EBF802AA0021322003F08DFA8348A4
:100E1000007820B982A1704807F0DFF803E083A1D1
:100E20006D4807F0DAF802AA0021322003F07CFABC
:100E300063480078012804D168A1674807F0CDF81D
:100E400003E06BA1644807F0C8F802AA0021322031
:100E500003F06AFA95480078012804D194A15E480D
:100E600007F0BBF803E095A15B4807F0B6F802AACB
:100E70000021322003F058FA934994A007F0BCF8FF
:100E800087E0E07820282BD1042508E0605D302839
:100E900002DB605D392800DD03E0681CC5B20F2D60
:100EA000F4DB00BF0F2D16D10120444908700D203E
:100EB0008549C8720A200873042505E0615D281F72
:100EC000814A1154681CC5B20F2DF7DB82A142483C
:100ED00007F083F808E085A13F4807F07EF803E0BB
:100EE00062A13D4807F079F853E085480068FFF7B4
:100EF00093FB061E01DB304600E07042014663A012
:100F000007F07AF845E07FA007F076F802AA002102
:100F1000322003F009FA7EA007F06EF802AA002141
:100F2000322003F001FA7FA007F066F802AA002140
:100F3000322003F0F9F980A007F05EF802AA002140
:100F4000322003F0F1F981A007F056F802AA00213F
:100F5000322003F0E9F982A007F04EF802AA00213E
:100F6000322003F0E1F983A007F046F802AA00213D
:100F7000322003F0D9F983A007F03EF802AA00213D
:100F8000322003F0D1F904E038A1134807F025F826
:100F900000BF02E081A007F02FF8002503E0002049
:100FA0006055681CC5B20F2DF9DB02AA0021642030
:100FB00003F0BAF936E600002C0600209C00002061
:100FC0009600002050686F6E65206E756D626572C8
:100FD00020756E73657400000048004052656D69AD
:100FE0006E646572206F6E009A000020D8020020A7
:100FF00052656D696E646572206F66660000000060
:1010000095000020416C61726D206F6E0000000041
:10101000416C61726D206F666600000097000020D1
:1010200043616C6C206D6F64650000004D657373E7
:10103000616765206D6F646500000000546865207D
:101040006E756D6265722073686F756C6420626581
:1010500020312D39390000009900002064656C6151
:1010600079206D696E7574653A25640057726F6EEC
:101070006720636F6D6D616E640000009B0000204F
:1010800053656E73697469766974793A25640000F2
:1010900064656C61793A25640000000073656E73C5
:1010A000697469766974793A2564000098000020B3
:1010B00047534D20776F726B00000000496E7465D6
:1010C0007276616C730000005011002050686F6EE2
:1010D000653A25730000000050686F6E65206E75DC
:1010E0006D626572207365740000000050686F6E59
:1010F00065206E756D6265722057726F6E670000B5
:10110000500000204154313A556E6C6F636B000003
:101110004154323A52656D696E646572206F6E2F6C
:101120006F6666004154333A416C61726D206F6E98
:101130002F6F6666000000004154343A4D657373AA
:101140006167652F43616C6C000000004154353AC3
:1011500053657420696E74657276616C00000000DE
:101160004154363A5365742073656E7369746976B9
:10117000697479004154373A5072696E7420696E0F
:10118000666F00004154383A5365742070686F6E82
:1011900065206E756D6265720000000057726F6E9B
:1011A0006720636F6D6D616E642100008CB0002656
:1011B000B1469EE000F036FD00F0FF09B9F1000FE6
:1011C0002FD04CA14D48FFF719F818B180214C4899
:1011D00000F0D6FD4BA14948FFF710F818B1802167
:1011E000474800F0CBFD49A14448FFF707F8B0B1EC
:1011F00049480068FFF73DFA04460D464748006835
:10120000FFF737FA07463A460B4645A103A8CDE952
:10121000004506F001FF03A9474806F0F3FB07F07D
:1012200007FF4648007801284BD14548007801283F
:101230000AD139480068FFF7EFF9071E01DB38468D
:1012400000E078423C281DDC3D48007802280AD1A5
:1012500031480068FFF7E0F9051E01DB284600E091
:10126000684223280EDC36480078032829D12A4812
:101270000068FFF7D1F9041E01DB204600E0604260
:1012800032281EDD2F480078012805D10BAB002243
:1012900001212D4801F06EFD2C480078012810D165
:1012A0002B48007801280CD10BAB002201212948E2
:1012B00001F060FD00202649087027A1294806F0AA
:1012C0008CFE1E48007878B920210D4800F04DFDB5
:1012D00050B9701CC6B2282E06D1012017490870DB
:1012E000002621A006F088FE0BAA0021642003F04E
:1012F0001BF85FE762656570000000009801002040
:101300000008014073746F7000000000417474693C
:101310007475646500000000500000204C0000203F
:1013200050697463683A252E316620526F6C6C3AAE
:10133000252E31660000000050110020940000208E
:101340009B000020950000208802002096000020CD
:1013500098000020B002002054696D65722062651B
:1013600067696E00004800404C6F636B21210000EC
:101370000EB5002402A800214FF482730A46CDE97D
:1013800000100121204801F0ADF920A1214806F00C
:1013900024FE38E002A800214FF482730A46CDE90A
:1013A000001001211C4801F09DF91C480078B8B9D3
:1013B00040F6B8311A4800F0F7FBC4B24CB119A19D
:1013C000144806F00AFEBDF808101A4803F018F990
:1013D00006E019A10F4806F000FE01201949087027
:1013E0000E48007801280ED117A10D4806F00AFB1F
:1013F000BDF808100F4803F003F902AA00214FF4CA
:101400007A7002F091FFC5E76002002047534D203B
:101410004F4B000000480040B00200209700002021
:101420005011002053756365737366756C2063619A
:101430006C6C0000D802002043616E277420636149
:101440006C6C0000980000205468652062696B6530
:101450002069732061626E6F726D616C0000000024
:1014600038B5054600246A4600214FF4FA6002F0C0
:101470005BFF4FF4FA7213A113A000F0E5FC00B378
:101480001EE001214FF4FA7000F0A8FBC4B2012C59
:101490000CD16B4600220121104801F06BFC6A461A
:1014A000002141F2883002F03FFF09E00CA1114811
:1014B00006F093FD6A46002140F6B83002F034FF92
:1014C000DFE738BD4F4B000041542B434E4D493DA3
:1014D000322C322C302C302C300D0A0060020020CF
:1014E00043616E2774206465746563742047534DAF
:1014F000000000000048004008B520E06B460022D4
:101500001146104602F05EFC69460D4802F08AFE64
:1015100006F04CFD00200B4908706A46002141F29C
:10152000883002F001FF00F0BFFF6A4600214FF44F
:101530007A7002F0F9FE6946014802F0F3FBDDE73C
:101540009C0400209400002008B500245CE000BF4B
:1015500000BF00BFFEF70CFE044600BF00F090FA8B
:1015600000BF2A480078401C2849087008460078C7
:10157000012801D104F014FB00BF00F09BFA00BF6A
:101580002046FEF7F9FD00BF00BF00BF00F0DEFC03
:1015900000BF00BF00BFFEF7EBFD044600BF00F038
:1015A0006FFA00BF19480078401E184908700846B5
:1015B0000078D0B904F002FB1548008800280BDD44
:1015C00000BF00F077FA00BF2046FEF7D5FD00BF50
:1015D00000BF04F0B7FA11E000BF00F06BFA00BFE3
:1015E0002046FEF7C9FD00BF08E000BF00F062FA28
:1015F00000BF2046FEF7C0FD00BF00BF00BF6A4627
:101600000021642002F090FEA1E700002C010020E0
:10161000F800002070B58AB0064600F087F900F0A7
:1016200095F900F07BF9044669480068B4FBF0F5D1
:10163000284603F0DFF800F049FF09A801F020FF79
:1016400000F0F2F909AB002262A1664800F0D8FF71
:1016500009AB002264A1684800F0D2FF09AB002268
:1016600066A16A4800F0CCFF09A80021684A01235E
:10167000CDE90032CDE902100B463C2265A1684855
:1016800002F026FF09A8032100220592CDE90621D8
:101690000890104640210622624BCDE9013200231A
:1016A0000092CDE90310604A60A1644801F072FF26
:1016B00009A8032100220592CDE9062108901046D1
:1016C000402106225E4BCDE90132CDE90310042012
:1016D00000235C4A5CA100905F4801F05BFF09A811
:1016E000032100220592CDE90621089010464021F1
:1016F00006225A4BCDE90132CDE903100520002323
:10170000574A58A100905B4801F044FF09A8032103
:1017100000220592CDE906210890142040210622DE
:10172000554BCDE90132CDE9031003200023534A84
:1017300053A10090564801F02DFF09A80321002273
:101740000592CDE906210890104640210622514B12
:10175000CDE90132CDE90310092000234E4A4FA103
:101760000090524801F016FF09A8032100220592BB
:10177000CDE9062108901046402106224C4BCDE9C8
:101780000132CDE90310072000234A4A4AA1009004
:101790004D4801F0FFFE09A8032100220592CDE982
:1017A00006210890104640210622484BCDE901321F
:1017B000CDE903100A200023454A46A1009049487C
:1017C00001F0E8FE09A9484802F03AF80AB070BDF5
:1017D000B8BA0008464C414720466F722047534D27
:1017E0000000000060020020464C414720466F7216
:1017F000206265657000000088020020464C414769
:1018000020466F722067736D00000000B002002058
:10181000ED7B00084D79536F667454696D657200F5
:10182000D8020020500B0020611400084170702085
:101830005461736B204C4544000000009C04002060
:10184000500A002049150008417070205461736BE4
:10185000204D505500000000D403002050100020FF
:10186000AD110008417070205461736B20434845EE
:10187000434B000084080020500C00201D0C000881
:10188000417070205461736B20424C450000000091
:1018900064050020500D0020F914000841707020EC
:1018A0005461736B204C4F434B0000002C0600200A
:1018B000500E002071130008417070205461736B4A
:1018C0002047534D00000000F4060020500F002078
:1018D000F50B0008417070205461736B2042454540
:1018E00050000000BC0700200C03002038B504465F
:1018F00000258021084800F043FA6A46002120466E
:1019000002F012FD8021044800F038FA6A460021F6
:10191000204602F009FD38BD0008014000B585B041
:10192000684606F005F8019805B000BD10B500F056
:101930008BFD00F027FA06F089F905F0B1FF08F0F9
:1019400093F808F005FA09F06DF810BD10B500F035
:10195000FBF800F003F800F0F3F810BD70B50026B6
:10196000002018490880184908801849086018495B
:101970000860184908601849086018490860002480
:1019800000BFFEF7F5FB064600BF00250BE0002078
:101990001049086000F074F800F08CF80D480068F9
:1019A0000444681C85B2002DF1D00C48046000206E
:1019B000084908600849086000BF3046FEF7DCFBB4
:1019C00000BF70BDA4000020A6000020A8000020D9
:1019D000AC000020B4000020B8000020B0000020BF
:1019E00001460846044A1268904203D9024A126826
:1019F000801A00E000207047B000002070B500257C
:101A000000BFFEF7B5FB054600BF0648046800BFEF
:101A10002846FEF7B1FB00BF2046FFF7E1FF064670
:101A2000304670BDB400002070B50025FFF7E6FF1A
:101A3000044600BFFEF79CFB054600BF002004499A
:101A4000086000BF2846FEF797FB00BF204670BD28
:101A5000B400002070B5002500BFFEF789FB0546E5
:101A600000BF0648046800BF2846FEF785FB00BF9C
:101A70002046FFF7B5FF0646304670BDB80000208F
:101A800010B509480088401C0749088007480088AD
:101A900018B900F083F80649086004480088401C23
:101AA0000249088010BD0000A4000020A60000200C
:101AB000A800002010B50F480088401E0D4908807E
:101AC00008460088A0B900F069F80B49086008468C
:101AD00000680A490968441A09480068A04201D20E
:101AE0000748046007480068A04201D20548046026
:101AF00010BD0000A6000020AC000020A8000020BF
:101B0000B4000020B800002010B5002400BF00BFC2
:101B1000FEF72EFB044600BFFFF7B2FF00BF102107
:101B2000064800F0C9FC00BFFFF7C4FF00BF204615
:101B3000FEF722FB00BF00BF10BD00005D110020BA
:101B400010B5FFF7E1FF10BD10B500200249086095
:101B500000F00AF810BD0000A00000200149086054
:101B600070470000A000002010B50A48006840F04F
:101B700080700849086000200749486008460068EE
:101B800040F001000860FFF7C9FE04462046FFF759
:101B9000E5FF10BDFCED00E0001000E001484068EA
:101BA00070470000001000E070B588B004460D4694
:101BB000202208496846FEF7F1FA21466846FEF7FA
:101BC00011FB2A4604A1684600F03EF9064630465D
:101BD00008B070BDE0AD00084F4B00002DE9F041AA
:101BE00004460D460027002622460BA10BA000F05C
:101BF0002BF9064606E0224607A108A000F024F9CA
:101C000006467F1C0EB9AF42F5D3012E02D000204C
:101C1000BDE8F0810120FBE74F4B000041540D0A65
:101C20000000000008B50848006858B16A46002165
:101C3000642002F079FB05A10548FEF7DFFA08B140
:101C4000012008BD0020FCE714000020434D540093
:101C5000980100202DE9F0410246002500260020D1
:101C600000230024002791F803C00CF00F0591F821
:101C700003C00CF0100CBCF1000F03D091F802C0AF
:101C80004CEA050591F800C0BCF1000F31D0146892
:101C900000202BE04FF0010C0CFA00F3B1F800C06B
:101CA0000CEA03069E4220D183004FF00F0C0CFA81
:101CB00003F7BC4305FA03FC4CEA040491F803C0A3
:101CC000BCF1280F06D14FF0010C0CFA00FCC2F851
:101CD00014C00AE091F803C0BCF1480F05D14FF0E1
:101CE000010C0CFA00FCC2F810C0401C0828D1D32B
:101CF0001460B1F800C0BCF1FF0F34DD546800205F
:101D00002EE000F1080C4FF0010808FA0CF3B1F8CE
:101D100000C00CEA03069E4221D183004FF00F0C55
:101D20000CFA03F7BC4305FA03FC4CEA040491F8EF
:101D300003C0BCF1280F05D100F1080C08FA0CF81B
:101D4000C2F8148091F803C0BCF1480F07D100F12C
:101D5000080C4FF0010808FA0CF8C2F81080401C7B
:101D60000828CED35460BDE8F08102460020936875
:101D70000B400BB1012000E000207047416170472B
:101D80000161704700B587B00121082005F0C0FD52
:101D90000121880405F0ACFD4FF40060ADF80400AB
:101DA00004208DF8070001A92548FFF753FF4FF4E1
:101DB0008060ADF8040003208DF8060018208DF82F
:101DC000070001A91E48FFF745FF4FF41650039086
:101DD0000020ADF81000ADF81200ADF81400ADF819
:101DE00018000C20ADF8160003A9164806F068F894
:101DF000012240F22551134806F03DF8012240F23D
:101E00002441104806F037F801210E4805F0F0FF94
:101E100040210C4805F0D4FF4FF4E06000F0E4FBF3
:101E200027208DF8080000208DF8090001208DF88A
:101E30000A008DF80B0002A800F09EFB07B000BD61
:101E4000000C0140004800402DE9F84304460D46CF
:101E500016460027B84607F0EBF800BF00BF00BFEA
:101E6000FEF786F9074600BFFFF70AFE00BF3348BA
:101E70000078401C3149087008460078012801D1DB
:101E800003F08EFE00BFFFF715FE00BF3846FEF7D9
:101E900073F900BF00BF00BF2146294806F09DF836
:101EA00000BF00BF00BFFEF763F9074600BFFFF7A2
:101EB000E7FD00BF21480078401E20490870084611
:101EC0000078D0B903F07AFE1E48008800280BDDA8
:101ED00000BFFFF7EFFD00BF3846FEF74DF900BF2A
:101EE00000BF03F02FFE11E000BFFFF7E3FD00BFCE
:101EF0003846FEF741F900BF08E000BFFFF7DAFD02
:101F000000BF3846FEF738F900BF00BF00BF15B963
:101F10000120BDE8F8836A460021304602F004FA49
:101F200029460948FEF76AF918B107F081F801203F
:101F3000EFE707F07DF80020EBE700002C01002020
:101F400000380140F8000020980100202DE9F04FF2
:101F50008BB0AD48AD49AE4BAE4ACDE90010AE49AD
:101F6000AE4807F045FAA948008800F480700028C0
:101F70007DD0A8490868FEF741FB04464FF09D411B
:101F8000FEF7E5F9A6490860A2494868FEF736FB66
:101F900004464FF09D41FEF7DAF9A24908609D49D9
:101FA0008868FEF72BFB04464FF09D41FEF7CFF902
:101FB0009D4908609749C868FEF720FB04464FF02A
:101FC0009D41FEF7C4F999490860954801684FF0B2
:101FD0008040FEF78AF90690934801680698FEF75C
:101FE00084F908908F4801684FF04040FEF77DF972
:101FF00006908E4801680698FEF777F907900899D1
:10200000FEF71BF90990FEF734FB824606F008FD47
:1020100080464FF06632864BFEF77EFA0646002277
:10202000844BFEF7D2F90446FEF736FB824908607E
:102030007D4801684FF08040FEF757F903907A48D9
:1020400001680398FEF751F98246764801684FF01F
:102050004040FEF74AF90390724801680398FEF782
:1020600044F983465146FEF73AF9814600E0C7E05D
:102070004FF07E51FEF7E1F80446FEF7FAFACDE99B
:102080000601674801684FF08040FEF72EF983464D
:10209000644801685846FEF728F98146624801689D
:1020A0004FF08040FEF721F98346604801685846AA
:1020B000FEF71BF982464946FEF7BFF80446FEF7D5
:1020C000D8FACDE90401DDE9062306F0F1FE4FF070
:1020D0006632574BCDE90801FEF71EFA074600228B
:1020E0004FF04043FEF771F90546FEF7D5FA534924
:1020F00008604E4801680068FEF7F7F806904A4805
:1021000001680068FEF7F1F804904648016800682D
:10211000FEF7EBF80290424801680068FEF7E5F828
:1021200001900299FEF789F803900499FEF7D7F819
:1021300005900699FEF7D3F80790FEF79AFA8246C3
:102140008B463A48016836480068FEF7CEF805909D
:102150003548016833480068FEF7C7F804900599D0
:10216000FEF76BF84FF080410690FEF7BEF807903F
:10217000FEF77FFA064652465B4606F099FE4FF0A0
:1021800066322B4BCDE90801FEF7C6F90446002262
:102190001346FEF71AF98046FEF77EFA28490860D2
:1021A0001D49B1F90000FEF729FA05464FF06251CA
:1021B000FEF79BF804462349FEF797F8224908608A
:1021C0001549B1F90200FEF719FA05464FF06251C0
:1021D000FEF78BF804461B49FEF787F81A4948605A
:1021E0000D49B1F90400FEF709FA05464FF06251B6
:1021F000FEF77BF804461349FEF777F8124988602A
:102200000BB0BDE8F08F00003E0000203C00002035
:102210002C000020E00100203600002030000020CB
:102220001C000020200000202400002028000020A6
:1022300066A64C400000F03F4C00002050000020FB
:10224000540000200AE81C414002002010B5402044
:102250000A49086000F0ECF880200849086000F0A6
:10226000E7F840200549091F086000F0E1F8402028
:102270000249086000F0DCF810BD0000140C0140B9
:1022800010B540200A49086000F0D2F880200849C3
:10229000091F086000F0CCF840200549091F0860BC
:1022A00000F0C6F840200249086000F0C1F810BDF7
:1022B000140C014070B508250024802011490860E5
:1022C00014E06006040E40200E49091D086000F06D
:1022D000AFF840200B49086000F0AAF80948083818
:1022E000006800F0800008B144F00104281EA5F148
:1022F0000101CDB2E5D140200249091D0860204608
:1023000070BD0000100C014070B50446082519E0AE
:1023100040201149086000F08BF804F0800020B1E3
:1023200080200D49091F086002E080200A490860EA
:102330006006040E00F07CF840200749091F086081
:1023400000F076F8281EA5F10101CDB2E0D14020C1
:102350000149086070BD0000140C014010B58020D8
:10236000134908604020086000F062F810480838FF
:10237000006808B9012000E0002000F0800008B1EA
:10238000002010BD80200A49091D086000F050F8A7
:1023900007480838006800F0800008B10020F0E726
:1023A00080200349091D086000F042F80120E8E799
:1023B000100C014010B540200A49086000F038F8C0
:1023C00080200849086000F033F840200549091FC3
:1023D000086000F02DF880200249091F086000F015
:1023E00027F810BD140C014010B540200F490860BB
:1023F00000F01EF880200D49091F086000F018F851
:1024000040200A49091F086000F012F807480C38FC
:10241000006800F0800020B14020044908600020DE
:1024200010BD4020014908600120F9E7140C01406B
:1024300008B50720009002E00098401E0090009828
:102440000028F9D108BD000008B50121042005F0DD
:102450005FFA1020ADF800008DF8030003208DF81E
:10246000020069460F48FFF7F5FB4FF48070ADF8A6
:10247000000069460B48FFF7EDFB8020ADF8000037
:1024800069460848FFF7E6FB4FF480710548FFF7FF
:1024900077FC10210348FFF773FC80210148FFF708
:1024A0006DFC08BD0008014010B540210148FFF750
:1024B00065FC10BD0008014030B505460C462246BB
:1024C0000021284600F026F830BD00000D480E49D6
:1024D00001600146416000218160C160016141618C
:1024E0008161C16101620163C16241620749816327
:1024F000C1634FF40051016441640146044A116014
:10250000704700007011002048454150B81100206C
:10251000BC0000202DE9F04103460C4617460FB9D8
:10252000BDE8F08103B9FBE70025002202E02D029F
:102530002543521C042AFAD3384603F0030C1946EB
:10254000BCF1000F08D0624603E001F8014B401EC9
:10255000521C08B1042AF8D30E4601E020C6001F21
:102560000428FBD2314602E001F8014B401E00284E
:10257000FAD100BFD4E7000070B5002100230F227C
:10258000C47804B3154C246804F4E064C4F5E06432
:10259000210AC1F10403CA40447804FA03F18478A3
:1025A0001440214309010E4C0678A155047804F02B
:1025B0001F050124AC4005786D11AD0005F1E02543
:1025C000C5F8004109E0047804F01F050124AC407F
:1025D000044D0678761145F8264070BD0CED00E0FC
:1025E00000E400E080E100E002490143024A11609A
:1025F000704700000000FA050CED00E07047000095
:102600002DE9F04104460E4617461D464FF00008DE
:1026100030480078002804DD42F6E1602880BDE8FB
:10262000F0811CB945F6C3502880F8E700BF00BF11
:1026300000BFFDF79DFD804600BFFFF721FA00BFF8
:1026400025480078401C2449087008460078012875
:1026500001D103F0A5FA00BFFFF72CFA00BF4046F6
:10266000FDF78AFD00BF00BF00BF1C482060666008
:1026700027620020606204F1080002F0B3FF2046E8
:1026800002F0C6F916480088401C1549088000BFB2
:1026900000BF00BFFDF76CFD804600BFFFF7F0F9FB
:1026A00000BF0D480078401E0B49087008460078AE
:1026B00008B903F083FA00BFFFF7FCF900BF4046FA
:1026C000FDF75AFD00BF00BF00BF0020288000BFFB
:1026D000A5E70000E40000202C010020464C414703
:1026E000080100202DE9F04F8BB00546884693463F
:1026F0009946DDE9147400200190FE480078002816
:1027000006DD46F2AE10208000200BB0BDE8F08F51
:1027100025B945F6C35020800020F6E748F20101B4
:10272000A9EB0100894536D01ADC40F20111A9EB72
:10273000010089452BD00CDCB9F1010F23D0B9F190
:10274000020F21D0B9F1040F1FD0B9F1080F2AD11F
:102750001CE001281CD003281BD0072823D119E036
:10276000B0F5807F1BD006DC012815D0032814D0DB
:10277000072818D112E0A0F2011088B1022810D069
:10278000062810D10EE000BF00BF00BF00BF00BF91
:1027900000BF00BF00BF00BF00BF00BF00BF00BF41
:1027A00000BF00BF04E045F6256020800020ACE7B4
:1027B00000BFD1492868884204D045F6C450208023
:1027C0000020A2E709F4807010B14FF0010A01E087
:1027D0004FF0000A0FB10020386009F00F000A9096
:1027E00000BF00BFFDF7C4FC019000BFFFF748F930
:1027F00000BF0A9801287CD002287BD0042802D090
:10280000082878D182E0286A00EA0806464519D1EE
:10281000BAF1010F02D1286AB0432862B7480068B4
:10282000C0F884600FB1686A386000BFFFF742F9F2
:1028300000BF0198FDF7A0FC00BF00BF0020208072
:10284000304662E709F4004068B100BFFFF732F993
:1028500000BF0198FDF790FC00BF00BF46F2B0102A
:102860002080002051E7A648007800280DDD00BF39
:10287000FFF720F900BF0198FDF77EFC00BF00BF05
:1028800046F66350208000203FE700BF9C48007858
:10289000401C9B49087008460078012801D103F0CC
:1028A0007FF900BFFFF706F900BF0198FDF764FC50
:1028B00000BF00BF00BF4B464246294602A8CDF8E4
:1028C00000B002F085F800BF00BF00BFFDF750FC6C
:1028D000019000BFFFF7D4F800BF89480078401E80
:1028E000874908700846007808B903F067F900BF07
:1028F00002E089E010E18DE1FFF7DCF800BF01980C
:10290000FDF73AFC00BF00BF00BF91E1286A00EA72
:102910000806CEB1BAF1010F02D1286AB04328628D
:1029200076480068C0F884600FB1686A386000BFFC
:10293000FFF7C0F800BF0198FDF71EFC00BF00BF05
:10294000002020803046E0E609F4004068B100BF76
:10295000FFF7B0F800BF0198FDF70EFC00BF00BF05
:1029600046F2B01020800020CFE6654800780028AD
:102970000DDD00BFFFF79EF800BF0198FDF7FCFBDF
:1029800000BF00BF46F6635020800020BDE600BFB8
:102990005B480078401C5A490870084600780128B6
:1029A00001D103F0FDF800BFFFF784F800BF0198E4
:1029B000FDF7E2FB00BF00BF00BF4B464246294681
:1029C00002A8CDF800B002F003F800BF00BF00BFBE
:1029D000FDF7CEFB019000BFFFF752F800BF48485B
:1029E0000078401E464908700846007808B903F090
:1029F000E5F800BFFFF75EF800BF0198FDF7BCFBEC
:102A000000BF00BF00BF13E1286A28EA0006464560
:102A100019D1BAF1010F02D1286A30432862374830
:102A20000068C0F884600FB1686A386000BFFFF7C3
:102A300041F800BF0198FDF79FFB00BF00BF0020D9
:102A40002080304661E609F4004068B100BFFFF71E
:102A500031F800BF0198FDF78FFB00BF00BF46F2C1
:102A6000B0102080002050E62548007800280DDDB9
:102A700000BFFFF71FF800BF0198FDF77DFB00BF07
:102A800000BF46F66350208000203EE600BF1C4891
:102A90000078401C1A49087008460078012801D1C6
:102AA00003F07EF800BFFFF705F800BF0198FDF7BF
:102AB00063FB00BF00BF00BF4B464246294602A849
:102AC000CDF800B001F084FF00BF00BF00BFFDF7EC
:102AD0004FFB019000BFFEF7D3FF00BF084800780E
:102AE000401E074908700846007808B903F066F8E8
:102AF00000BF07E0E4000020464C4147840100206D
:102B00002C010020FEF7D6FF00BF0198FDF734FB33
:102B100000BF00BF00BF8BE0286A28EA0006CEB1E4
:102B2000BAF1010F02D1286A304328628F48006849
:102B3000C0F884600FB1686A386000BFFEF7BAFF62
:102B400000BF0198FDF718FB00BF00BF00202080E8
:102B50003046DAE509F4004068B100BFFEF7AAFF8D
:102B600000BF0198FDF708FB00BF00BF46F2B010A0
:102B700020800020C9E57E48007800280DDD00BFD8
:102B8000FEF798FF00BF0198FDF7F6FA00BF00BFFF
:102B900046F6635020800020B7E500BF74480078F7
:102BA000401C7349087008460078012801D102F0E2
:102BB000F7FF00BFFEF77EFF00BF0198FDF7DCFACC
:102BC00000BF00BF00BF4B464246294602A8CDF8D1
:102BD00000B001F0FDFE00BF00BF00BFFDF7C8FA66
:102BE000019000BFFEF74CFF00BF61480078401E17
:102BF0005F4908700846007808B902F0DFFF00BF9F
:102C0000FEF758FF00BF0198FDF7B6FA00BF00BFFE
:102C100000BF0DE000BFFEF74DFF00BF0198FDF7BC
:102C2000ABFA00BF00BF45F62560208000206CE5B0
:102C300000BF00F05BFA00BF00BFFDF799FA0190FA
:102C400000BFFEF71DFF00BF4848006890F8350040
:102C500030B101280CD002282CD003283CD119E037
:102C60001FB142480068006C38600020208040E0BE
:102C70001FB13E480068006C386000BFFEF71AFFC5
:102C800000BF0198FDF778FA00BF00BF46F2A91017
:102C900020802EE00FB10020386000BFFEF70AFF51
:102CA00000BF0198FDF768FA00BF00BF47F2D920C6
:102CB00020801EE01FB12D480068006C386000BF06
:102CC000FEF7F8FE00BF0198FDF756FA00BF00BFFF
:102CD00045F6C25020800CE000BFFEF7EBFE00BFBF
:102CE0000198FDF749FA00BF00BF46F62E6020802C
:102CF00000BF00BF208808B1002006E51B4800681F
:102D0000D0F88460BAF1010F22D10A9801280BD0C3
:102D100002280AD0042802D008280AD100E000BF07
:102D2000286AB043286212E000BF286A3043286254
:102D30000DE000BFFEF7BEFE00BF0198FDF71CFAD4
:102D400000BF00BF45F6256020800020DDE400BF05
:102D500000BFFEF7AFFE00BF0198FDF70DFA00BF00
:102D600000BF002020803046CFE400008401002016
:102D70002C0100202DE9FF470546884617461C46D2
:102D800035B945F6C3502080002004B0BDE8F08777
:102D90004FB1012F08D0B7F5004F06D06FF40040B7
:102DA000384420B902E000BF00BF00BF04E045F690
:102DB000256020800020E8E700BF1349286888428A
:102DC00004D045F6C45020800020DEE7FEF7E6FE82
:102DD00006460E48007800280BDD00231A462946D7
:102DE0000948CDE90087CDE9026401F0FDFF00202C
:102DF000CBE733463A4641462846009401F02CFE84
:102E000081464846C1E70000464C4147E4000020A7
:102E100010B50348006810B101480068804710BD34
:102E2000D000002070B5044600F0BCF800204549F1
:102E3000087045490870454908704549086045498A
:102E4000086045490870454908704549087045497A
:102E5000086045490860454908604549087045488B
:102E600000680A21B0FBF1F043490860434800685C
:102E700058B14348056845B14048066803E0761EEE
:102E8000002028602D1D002EF9D100203D4908604A
:102E90003D4908603D4908603D4908603D4908607A
:102EA0003D4908603D4908603D49087002F094FCC6
:102EB00002F092FD204601F0C3FD208800B170BDF4
:102EC000204602F0DDF9208800B1F8E7204602F044
:102ED000F5FA208800B1F2E7204602F0ADFC208828
:102EE00000B1ECE7204602F0FDFE208800B1E6E7E5
:102EF000204603F067FA208800B1E0E7204602F0A0
:102F00002BF9208800B1DAE7204601F035FF208850
:102F100000B1D4E7204604F0BDFA208800B1CEE726
:102F2000204603F093F9208800B1C8E7204604F05A
:102F300021FB208800B1C2E701F074FCFFF75EFBC3
:102F400000BFBCE7E4000020EC0000202C010020C2
:102F500084010020880100201201002013010020BC
:102F6000140100202001002024010020280100205D
:102F700034010020B8BA00083001002088BA0008E7
:102F800084BA0008C4000020C8000020CC00002043
:102F9000D0000020D4000020D8000020DC00002059
:102FA000620100200A4A1168002002E0002204C1E8
:102FB000401C084A12689042F8D3054A1268054B33
:102FC0001B6802EB8302121F034B1A60704700005C
:102FD00084BA000888BA00088C01002008480078EC
:102FE000012800D0704707480078FA2800DBF9E78D
:102FF00004480078401C0349087000BFF2E7000055
:10300000EC000020E400002010B500242E480078D9
:10301000012800D010BD00BFFDF7AAF8044600BF8C
:103020002A48007828B900BF2046FDF7A5F800BF60
:10303000F0E726480078401E2449087008460078CA
:10304000002805DD00BF2046FDF796F800BFE1E748
:103050001F480078002805DD00BF2046FDF78CF8EA
:1030600000BFD7E702F0A4FB1A49087008460078B1
:1030700000EB4000184951F8200018490860084644
:10308000006817490968884205D100BF2046FDF74E
:1030900073F800BFBEE711480068D0F89000401CEC
:1030A0000E490968C1F890000E480068401C0D499F
:1030B00008604FF080500C49086000BF2046FDF7C3
:1030C0005BF800BF00BFA5E7EC000020E400002093
:1030D0002C01002013010020E4470020880100207B
:1030E000840100205801002004ED00E010B5002408
:1030F00020480078002800DD10BD1F480078002817
:1031000000DDF9E700BFFDF733F8044600BF02F029
:103110004FFB1A4908700846007800EB4000184938
:1031200051F82000174908600846006816490968E8
:10313000884205D100BF2046FDF71EF800BFDBE73F
:1031400010480068D0F89000401C0E490968C1F88A
:1031500090000E480068401C0C4908604FF08050F9
:103160000B49086000BF2046FDF706F800BF00BF0E
:10317000C2E70000E40000202C0100201301002021
:10318000E44700208801002084010020580100202D
:1031900004ED00E070B5044600251A4800780028C8
:1031A00003DD46F66250208070BD17480078012884
:1031B00003D045F689602080F6E714480078FA28A5
:1031C00003DB45F209202080EEE700BF00BFFCF7DB
:1031D000CFFF054600BFFEF753FC00BF0B48007849
:1031E000401C0A49087002F0DBFC00BFFEF762FCDD
:1031F00000BF2846FCF7C0FF00BF00BF00202080B2
:1032000000BFD1E7E4000020EC0000202C010020EA
:1032100070B50446002523480078002803DD46F6F3
:103220006550208070BD20480078012803D045F605
:1032300089602080F6E71D48007818B946F664508A
:103240002080EFE700BF00BFFCF792FF054600BFFC
:10325000FEF716FC00BF15480078401E13490870A1
:103260000846007800280CDD00BFFEF723FC00BFF5
:103270002846FCF781FF00BF00BF46F66350208060
:10328000D0E702F09BFC00BFFEF714FC00BF28460D
:10329000FCF772FF00BF00BFFFF728FF002020806F
:1032A00000BFBFE7E4000020EC0000202C0100205C
:1032B00010B5044612480078E8B902F079FA1149CD
:1032C000087008460078104908700E48007800EB36
:1032D00040000E4951F820000D490860084600687A
:1032E0000C490860012006490870FDF741FC43F6CF
:1032F0009920208002E045F68A60208010BD000001
:10330000EC0000201301002012010020E4470020FF
:1033100088010020840100202DE9F04107464FF08C
:10332000000800BF00BFFCF723FF804600BFFEF788
:10333000A7FB00BF0020474908604749088047496C
:10334000088047490860474908604749086047497D
:103350000860474908604749088100BFFEF7AAFB9B
:1033600000BF4046FCF708FF00BF00BF00BF00BF22
:10337000FCF7FEFE804600BFFEF782FB00BF3E4822
:10338000046800BFFEF796FB00BF4046FCF7F4FE62
:1033900000BF00BF26E000BF00BFFCF7E9FE80468B
:1033A00000BFFEF76DFB00BF00207834E0632064AF
:1033B00020602063A061A082E0826062A062FEF7CC
:1033C000EDFB2062783C04F164060020B081D4F863
:1033D000C04000BFFEF76EFB00BF4046FCF7CCFECE
:1033E00000BF00BF002CD6D100BF00BFFCF7C0FE5D
:1033F000804600BFFEF744FB00BF2048056800BFC1
:10340000FEF758FB00BF4046FCF7B6FE00BF00BF0A
:1034100016E000BF00BFFCF7ABFE804600BFFEF722
:103420002FFB00BF05F120060020B081AD6900BF71
:10343000FEF740FB00BF4046FCF79EFE00BF00BF0A
:10344000002DE6D103F0EEFE04F090F90020388064
:10345000BDE8F08100010020FA00002042010020B8
:10346000540100206801002074010020E8000020C1
:1034700024010020D84700205C0100201801002012
:10348000F8B5044600266946364800F0CBFEBDF884
:10349000000018B1BDF800002080F8BD6A46002188
:1034A000022000F041FFBDF8000018B1BDF8000097
:1034B0002080F2E700BF00BFFCF75AFE064600BFBF
:1034C000FEF7DEFA00BF00202749086000BFFEF7C4
:1034D000F1FA00BF3046FCF74FFE00BF00BF0025E9
:1034E0002248006822490968884205D91F480068B7
:1034F0001F490968B0FBF1F525B91C4800680A218D
:10350000B0FBF1F56A460021284600F00DFF694640
:10351000144800F007FCBDF8000018B1BDF8000029
:103520002080BAE700BF00BFFCF722FE064600BFBE
:10353000FEF7A6FA00BF00200E4908600A4800689E
:103540000D49086001200D49087000BFFEF7B2FA6E
:1035500000BF3046FCF710FE00BF00BF00202080F7
:1035600000BF9AE7F44A002044010020B8BA0008DE
:10357000A0BA00085401002048010020500100209A
:1035800010B50348006810B101480068804710BDBD
:10359000D40000202DE9FF4F87B004469046DDE9B6
:1035A0001BA5DDE91496179F00200390954800782D
:1035B000002805DD47F24A1028800BB0BDE8F08FE7
:1035C0001CB947F2AD102880F7E7B8F1000F03D11E
:1035D00047F24F102880F0E71EB946F62F6028808A
:1035E000EBE789480068874203D246F630602880BE
:1035F000E3E71698B84203D346F631602880DCE74B
:10360000B9F1200F03D346F273202880D5E7B9F132
:10361000000F06D17D48844203D046F273202880F3
:10362000CBE7B9F11F0F06D17948844203D046F2A7
:1036300073202880C1E7204602F0D4FE00202880B5
:103640000AF0010090B10AF0020078B1059600205E
:10365000069008E00021059801600598001D05907E
:103660000698401C06900698B842F3D3169806EBCD
:1036700080000490CDE9007A32464046049B0A99C6
:1036800000F070FD0590C4F828800A98E062089860
:10369000206284F83790059820600498A0601998FB
:1036A0006065199818B95B480068A06501E0199831
:1036B000A0651A9860606662A763A4F83CA04FF00A
:1036C000000B08E0002104F17C0040F82B100BF106
:1036D000010000F0FF0BBBF1000FF3D004F1640018
:1036E000189901F061FE204600F09EF800BF00BF6F
:1036F00000BFFCF73DFD039000BFFEF7C1F900BF1E
:1037000045480078401C4449087008460078012864
:1037100001D102F045FA00BFFEF7CCF900BF0398D3
:10372000FCF72AFD00BF00BF00BF94F8370002F08D
:103730005FF8204602F098F9204602F009FE37486B
:103740000088401C3549088035480078012837D06A
:1037500000BF00BF00BFFCF70BFD039000BFFEF7EA
:103760008FF900BF2C480078401E2B49087008468E
:103770000078D0B902F022FA2A48008800280BDD30
:1037800000BFFEF797F900BF0398FCF7F5FC00BFF8
:1037900000BF02F0D7F911E000BFFEF78BF900BFC0
:1037A0000398FCF7E9FC00BF08E000BFFEF782F9D0
:1037B00000BF0398FCF7E0FC00BF00BF00BFFCE6C1
:1037C00000BF00BF00BFFCF7D3FC039000BFFEF7B3
:1037D00057F900BF10480078401E0F49087008468E
:1037E000007808B902F0EAF900BFFEF763F900BFFC
:1037F0000398FCF7C1FC00BF00BF00BFFFF776FCD9
:1038000000BFDAE6E4000020B4BA00081047002048
:1038100048460020300100202C01002060010020DB
:10382000EC000020F800002010B5044603480068B2
:1038300018B1204601490968884710BDC40000201E
:1038400070B504460D46002678480078002803DD50
:1038500047F24E10288070BD7548844203D147F26C
:103860004C102880F7E77348844203D147F24D108B
:103870002880F0E79CB900BF00BFFCF779FC064642
:1038800000BFFEF7FDF800BF6B48046800BFFEF7FD
:1038900011F900BF3046FCF76FFC00BF00BF00BF4E
:1038A00000BF00BFFCF764FC064600BFFEF7E8F867
:1038B00000BF62480078401C6049087008460078E4
:1038C000012801D102F06CF900BFFEF7F3F800BF48
:1038D0003046FCF751FC00BF00BF00BF94F8360033
:1038E00008282DD2DFE800F004090E10080A0F1195
:1038F000204602F0F9F85EE05DE000BF204603F0EC
:1039000075FC58E000BF00BF00BF204603F06EFC0E
:1039100094F83400082810D2DFE800F00407050806
:10392000090A0B0600BF00BF08E000BF00BF00BFD0
:1039300000BF204601F08EFE00E000BF00BF3AE06D
:1039400000BF00BF00BFFCF713FC064600BFFEF738
:1039500097F800BF39480078401E3849087008467B
:103960000078D0B902F02AF93548008800280BDD2C
:1039700000BFFEF79FF800BF3046FCF7FDFB00BF1D
:1039800000BF02F0DFF811E000BFFEF793F800BFC0
:103990003046FCF7F1FB00BF08E000BFFEF78AF8F5
:1039A00000BF3046FCF7E8FB00BF00BF00BF46F693
:1039B0002D6028804FE700BF04F1640001F09EFCF9
:1039C000204600F041F8204602F0DAFC1D4800884D
:1039D000401E1C490880204602F004FDFF2084F8A8
:1039E000360000BF00BF00BFFCF7C2FB064600BFA9
:1039F000FEF746F800BF11480078401E0F490870D6
:103A00000846007808B902F0D9F800BFFEF752F86E
:103A100000BF3046FCF7B0FB00BF00BF00BF002076
:103A20002880FFF763FB00BF15E70000E4000020DB
:103A30004846002010470020840100202C0100206F
:103A4000F80000206001002010B50446034800681B
:103A500018B1204601490968884710BDC8000020F8
:103A60002DE9F05F80460F4616461C460A9D4FF032
:103A7000000B8A480078002805DD46F2AE10288049
:103A80000020BDE8F09F26B946F2D520288000200E
:103A9000F7E71FB1B7F5004F02D100E000BF04E027
:103AA00045F6256028800020EBE700BF0CB1002020
:103AB000206000BF00BFFCF75BFB834600BFFDF743
:103AC000DFFF00BF7648006800F164092B462246FC
:103AD0003146484601F034FC8246288800BBA4B138
:103AE000FEF75CF82168401A6D49096848676C4820
:103AF0000068806F6A490968496F884205D2684842
:103B00000068406F66490968886700BFFDF7D2FF0B
:103B100000BF5846FCF730FB00BF00BF5046B0E77F
:103B200007F4004068B146F2B010288000BFFDF7EE
:103B3000C1FF00BF5846FCF71FFB00BF00BF0020BD
:103B40009FE75848007800280DDD00BFFDF7B2FF61
:103B500000BF5846FCF710FB00BF00BF46F663509D
:103B6000288000208DE700BF4E480078401C4D495A
:103B7000087008460078012801D102F011F800BF52
:103B8000FDF798FF00BF5846FCF7F6FA00BF00BFEC
:103B900000BF434602220021084601F09BFC00BF03
:103BA00000BF00BFFCF7E4FA834600BFFDF768FFE3
:103BB00000BF3C480078401E3A490870084600782B
:103BC00008B901F0FBFF00BFFDF774FF00BF5846C6
:103BD000FCF7D2FA00BF00BF00BFFFF787FA00BFB3
:103BE00000BFFCF7C5FA834600BFFDF749FF00BFE1
:103BF0002B48006890F8350020B101282AD003280E
:103C000032D132E026480068D0F85CA02448006831
:103C1000B0F860003080D4B121480068006C2060AA
:103C2000FDF7BCFF1E490968096C401A1C49096868
:103C300048671B480068806F19490968496F8842C6
:103C400005D217480068406F154909688867002049
:103C5000288017E04FF0000A0020308004B1206077
:103C600046F2A91028800DE000BF4FF0000A0020A6
:103C700030801CB10A480068006C206047F2D920EF
:103C8000288000BF00BF00BFFDF714FF00BF5846EB
:103C9000FCF772FA00BF00BF5046F2E6E4000020D5
:103CA000840100202C0100202DE9FF4707468846AB
:103CB00091461D460C9E4DB1102D08D0B5F5004F14
:103CC00006D0A5F50040103820B902E000BF00BFC3
:103CD00000BF04E045F625603080BDE8FF8700BFE7
:103CE000FDF75CFF04460D48007800280BDD00203E
:103CF0004B4642463946CDE90246CDE90005084823
:103D000001F072F8E9E72B464A4641463846CDE9CC
:103D1000004602F0CFFB00BFDFE70000E400002018
:103D2000544D53477FB504460D46002600BF00BFE3
:103D3000FCF71EFA064600BFFDF7A2FE00BF1CB14D
:103D40001748006884420CD100BFFDF7B3FE00BFE6
:103D50003046FCF711FA00BF00BF47F25710288029
:103D60007FBD00BFFDF7A6FE00BF3046FCF704FA9A
:103D700000BF00BF0B48007800280BDD002000903A
:103D80000190034602462146CDE90205064801F0AE
:103D90002BF8E5E72946204602F0D0FC00BFDFE71C
:103DA00084010020E40000205452455310B504461D
:103DB0000348006818B1204601490968884710BDCA
:103DC000CC0000202DE9F04780460E4614461D46E3
:103DD0004FF000098C480078002805DD46F2AE104F
:103DE00028800020BDE8F0871EB1B6F5004F02D153
:103DF00000E000BF04E045F6256028800020F1E7E0
:103E000000BF0CB10020206000BF00BFFCF7B0F97C
:103E1000814600BFFDF734FE00BF7C480068406C5F
:103E2000B8B37A480068406C401E78490968486415
:103E300076480068476C1CB174480068006C2060CC
:103E4000FDF7ACFE71490968096C401A6F490968B1
:103E5000C1F8A4006D480068D0F8A8006B49096853
:103E6000D1F8A410884207D268480068D0F8A400AE
:103E700066490968C1F8A80000BFFDF71BFE00BF36
:103E80004846FCF779F900BF00BF0020288038467B
:103E9000A8E7FFE706F4004068B100BFFDF70AFE9F
:103EA00000BF4846FCF768F900BF00BF46F2B010FB
:103EB0002880002096E75648007800280DDD00BFD6
:103EC000FDF7F8FD00BF4846FCF756F900BF00BFFC
:103ED00046F663502880002084E700BF4C480078F5
:103EE000401C4B49087008460078012801D101F0B8
:103EF00057FE00BFFDF7DEFD00BF4846FCF73CF96A
:103F000000BF00BF00BF434607220021084601F062
:103F1000E1FA00BF00BF00BFFCF72AF9814600BFED
:103F2000FDF7AEFD00BF3A480078401E38490870E2
:103F30000846007808B901F041FE00BFFDF7BAFD60
:103F400000BF4846FCF718F900BF00BF00BFFFF7ED
:103F5000CDF800BF00BFFCF70BF9814600BFFDF7AD
:103F60008FFD00BF2948006890F8350020B1012876
:103F700026D0032834D12CE0FCB124480068006C22
:103F80002060FDF70BFE21490968096C401A1F49A2
:103F90000968C1F8A4001D480068D0F8A8001B49B2
:103FA0000968D1F8A410884207D218480068D0F8F0
:103FB000A40016490968C1F8A8000020288013E071
:103FC0001CB112480068006C206046F2A9102880DD
:103FD0000AE00CB10020206047F2D920288003E0DD
:103FE00046F62E60288000BF00BF08480068476C76
:103FF00000BFFDF75FFD00BF4846FCF7BDF800BFFE
:1040000000BF3846EEE60000E400002084010020F6
:104010002C0100202DE9FF4106460F4614461FB132
:10402000B7F5004F02D100E000BF06E045F625607D
:104030002080002004B0BDE8F08100BFFDF7AEFD98
:1040400005460D48007800280CDD0020009003464E
:1040500002463146CDE902540190084800F0C4FE02
:104060000020E7E723462A463946304602F030FC76
:1040700080464046DEE70000E400002054534947F4
:104080002DE9F04705460E4617461C464FF0000A3C
:1040900032480078002804DD47F259102080BDE83E
:1040A000F0871EB946F2D5202080F8E71FB946F206
:1040B000D5202080F3E700BF00BFFCF759F8824607
:1040C00000BFFDF7DDFC00BF0DB925480568286875
:1040D00078B900BFFDF7EEFC00BF5046FCF74CF886
:1040E00000BF00BF00203060386047F252102080CF
:1040F000D5E795F83C0000F0010078B900BFFDF766
:10410000D9FC00BF5046FCF737F800BF00BF0020C5
:104110003060386047F254102080C0E700BFFDF7E0
:10412000C9FC00BF5046FCF727F800BF00BF4FF0A6
:104130000008D5F8249003E009F1040908F101080A
:10414000D9F800000028F7D0C6F80080A86BA0EBD3
:10415000080038600020208000BFA0E7E4000020B5
:1041600084010020F0B50446DDE9055602EB850028
:104170004FF0807C071F3846C7F800C0071F38463D
:104180003C60DFF89CC0071F3846C7F800C04FF0FE
:10419000123C071F3846C7F800C04FF0033C071F0A
:1041A0003846C7F800C04FF0023C071F3846C7F832
:1041B00000C0071F38463B60071F384639604FF084
:1041C000113C071F3846C7F800C04FF0103C071FCE
:1041D0003846C7F800C04FF0093C071F3846C7F8FB
:1041E00000C04FF0083C071F3846C7F800C04FF02A
:1041F000073C071F3846C7F800C04FF0063C071FB2
:104200003846C7F800C04FF0053C071F3846C7F8CE
:1042100000C04FF0043C071F3846C7F800C0F0BD8F
:10422000B96800087FB505460C461248854203D19F
:1042300047F25B1020807FBD0F48854203D147F2D3
:104240005C102080F7E70D48007800280BDD002087
:1042500000900190034602462946CDE90204084831
:1042600000F0C2FDE7E72146284602F005FE00BF48
:10427000E1E700004846002010470020E40000204D
:104280005453555370B52448006810B12248006853
:104290008047FDF783FC04462048006820490968F0
:1042A000884215D01D480068D0F89800201A1B4994
:1042B0000968C1F8940019480068D0F89C001749B3
:1042C0000968D1F89410084414490968C1F89C00A1
:1042D00013480068C0F89840FDF7A6FB05460F4854
:1042E0000068D0F8B400A84203D20C480068C0F8B7
:1042F000B4500A480068D0F8B8000A4909688842F2
:1043000005D20848006805490968C1F8B8000020CE
:104310000449086070BD0000D8000020840100201E
:1043200088010020280100202DE9F04105460E46B5
:10433000144600274D480078002804DD47F2752018
:104340002080BDE8F0814A480078002803DD46F669
:1043500063502080F5E736B1022E05D0042E0AD036
:10436000082E09D101E000BF00BF1DB947F27E2031
:104370002080E6E704E003E045F625602080E0E7E2
:1043800000BF00BF00BF00BFFBF7F2FE074600BF43
:10439000FDF776FB00BF36480078401C34490870B2
:1043A00008460078012801D101F0FAFB00BFFDF7B3
:1043B00081FB00BF3846FBF7DFFE00BF00BF00BF38
:1043C00001202C49096881F83600234632462946E7
:1043D0002848006802F02CFE2088F0B100BF00BF22
:1043E00000BFFBF7C5FE074600BFFDF749FB00BF56
:1043F0001F480078401E1E4908700846007808B91A
:1044000001F0DCFB00BFFDF755FB00BF3846FBF7B2
:10441000B3FE00BF00BF00BF93E71648006801F07D
:1044200063FB00BF00BF00BFFBF7A2FE074600BF53
:10443000FDF726FB00BF0E480078401E0C490870AF
:104440000846007808B901F0B9FB00BFFDF732FB60
:1044500000BF3846FBF790FE00BF00BF00BFFEF76D
:1044600045FE0020208000BF6BE70000E400002034
:104470002C0100208401002010B586B000F01EF849
:10448000FDF78CFB044605A800210091CDE901143D
:1044900003900748007800EB4000064A02EB8001D9
:1044A00000231A46044800F09FFC06B010BD00002F
:1044B00012010020E44700205449434B10B5034843
:1044C000006810B101480068804710BDDC00002082
:1044D0002DE9F84F0446884616461F46DDE90BAB2A
:1044E000DDF828900D9D00200090414800780028BC
:1044F00004DD47F243302880BDE8F88F1CB945F64B
:10450000C3502880F8E7B9F1010F08D0B9F1020FC4
:104510000BD11FB947F240302880EDE709E01EB902
:1045200047F23F302880E7E703E045F62560288022
:10453000E2E700BF00BF00BF00BFFBF719FE00901D
:1045400000BFFDF79DFA00BF2A480078401C2949AA
:10455000087008460078012801D101F021FB00BF56
:10456000FDF7A8FA00BF0098FBF706FE00BF00BFEA
:1045700000BF012084F82A001F482060C4F804808E
:1045800026620020A061E0616762A4F82890C4F868
:1045900008A0C4F80CB020616061204602F0D6FF8C
:1045A00016480088401C1549088000BF00BF00BFA6
:1045B000FBF7DEFD009000BFFDF762FA00BF0D487B
:1045C0000078401E0B4908700846007808B901F0D1
:1045D000F5FA00BFFDF76EFA00BF0098FBF7CCFDBF
:1045E00000BF00BF00BF0020288000BF84E700009C
:1045F000E40000202C010020544D522070010020C6
:10460000F8B506460C4629480078002804DD47F234
:10461000433020800020F8BD26B947F24230208088
:104620000020F8E722493068884204D045F6C4509B
:1046300020800020EFE76846FEF7ACFD96F82A00E0
:1046400000B3012812D0022802D0032822D10EE0A4
:10465000304603F0FDF80021304603F01FF86846AD
:10466000FEF7D6FD0020208001251BE000BF0021C1
:10467000304603F013F86846FEF7CAFD002020809C
:1046800001250FE06846FEF7C3FD47F23D3020806C
:10469000002507E06846FEF7BBFD47F24130208069
:1046A000002500BF00BF2846B5E70000E400002059
:1046B000544D52202DE9F8430546884691461C4644
:1046C0003A480078002805DD47F24330208000207A
:1046D000BDE8F88325B947F2423020800020F7E793
:1046E00033492868884204D045F6C4502080002011
:1046F000EEE76846FEF74EFD95F82A00002841D007
:10470000012837D0022802D0032843D131E02846BF
:1047100003F09EF800202080B8F1000F1AD0B8F105
:10472000030F03D0B8F1040F15D109E0AE681EB134
:104730002846E968B04702E047F24430208012E0A2
:10474000AE681EB149462846B04702E047F2443001
:10475000208008E007E06846FEF75AFD45F6256030
:1047600020800020B4E700BF6846FEF751FD012716
:1047700018E000BF6846FEF74BFD47F24930208045
:1047800001270FE06846FEF743FD47F23D302080E9
:10479000002707E06846FEF73BFD47F241302080E6
:1047A000002700BF00BF384692E70000E400002069
:1047B000544D522010B5002400BF00BFFBF7D8FCB9
:1047C000044600BFFDF75CF900BF09480078401CB3
:1047D0000749087000BFFDF76DF900BF2046FBF7E1
:1047E000CBFC00BF00BFFFF747FEFEF70DFC10BD7E
:1047F000E400002001464A1E4FF0E0235A61084AB7
:10480000106820F07F4000BF10601A46126942F025
:1048100005021A611A46126942F002021A617047D3
:1048200020ED00E0244A2549254A264A2649274A00
:104830002748284A284A294A294A2A482A482B48E8
:104840002B4A2C482C4A2D4A2D482E482E482F48BA
:104850002F4A304A304A3148314A324A3248334886
:1048600033483448344835483548364A364A374A5A
:10487000374A384838483948394A3A4A3A4A3B4828
:104880003B483C483C493D483D4A3E4A3E4A3F4AF7
:104890003F4A404A404A4148414A424A42484348C6
:1048A000434A444A4448454A454A46484648474898
:1048B00000BF00BF00BF7047FCBA000864BC00081E
:1048C000FDBA0008FEBA000800BB000804BB0008DF
:1048D00008BB000805BB000830BB000831BB00085E
:1048E00032BB000834BB000836BB000838BB0008E8
:1048F0003ABB00083CBB00085CBB000860BB00087A
:1049000062BB000864BB000866BB000868BB000807
:1049100094BB000895BB000896BB000898BB000834
:104920009ABB00089BBB00089CBB00089EBB00080C
:10493000A0BB0008A2BB0008A4BB0008A6BB0008DF
:10494000A8BB0008D8BB0008D9BB0008DABB000828
:10495000DBBB0008DCBB0008DEBB0008E0BB0008D6
:1049600008BC000809BC00080ABC00080BBC000811
:104970000CBC00080EBC000810BC000814BC0008E9
:1049800015BC000816BC000817BC000818BC0008BD
:1049900019BC00081ABC00081BBC00081CBC00089D
:1049A0001EBC00081FBC000820BC000822BC000878
:1049B00024BC000825BC000828BC00085CBC00081A
:1049C0005DBC00085EBC000860BC000862BC00085A
:1049D0002DE9F04106460F4614461D46DDF81880C5
:1049E0000A480068C0F8804008480068A0F888506D
:1049F000002006490968C1F884004346012239466F
:104A0000304600F067FDBDE8F08100008401002021
:104A100009A1C161002141610849096811B900215A
:104A2000816105E0054909688161044909684861B7
:104A300002490860704700002000000004010020C7
:104A40000021034A1160034A118001807047000071
:104A500004010020080100202DE9F04F85B0044634
:104A6000894692469B46DDF838800020009000BFC2
:104A700000BFFBF77DFB009000BFFDF701F800BF12
:104A8000BAF1000F0AD0BAF1010F0DD0BAF5004FFC
:104A900005D06FF40040504460B906E000BF206AC2
:104AA00040EA0900206216E000BF206A20EA0900FF
:104AB000206210E000BFFCF7FDFF00BF0098FBF78D
:104AC0005BFB00BF00BF45F62560A8F80000002092
:104AD00005B0BDE8F08F00BFC4F824B004F10800B1
:104AE00001900198008968B900BFFCF7E3FF00BF9F
:104AF0000098FBF741FB00BF00BF0020A8F80000B2
:104B0000206AE5E700BF71480078401C6F490870D3
:104B100008460078012801D101F042F800BFFCF7F7
:104B2000C9FF00BF0098FBF727FB00BF00BF00BF15
:104B300001980768BD6889E07868029095F8880058
:104B400000F00F0003900398012821D002282ED0F6
:104B5000042802D0082836D10EE0206AD5F880104B
:104B600000EA0106D5F88000B04204D15A46314629
:104B7000284600F0AFF863E0206AD5F8801000EA1C
:104B8000010626B15A463146284600F0A3F857E000
:104B9000D5F88000216A20EA0106D5F88000B042ED
:104BA00004D15A463146284600F094F848E0D5F83A
:104BB0008000216A20EA010626B15A46314628467D
:104BC00000F088F83CE000BF00BF00BFFBF7D0FA60
:104BD000009000BFFCF754FF00BF3C480078401E27
:104BE0003A49087008460078D0B900F0E7FF384825
:104BF000008800280BDD00BFFCF75CFF00BF0098B9
:104C0000FBF7BAFA00BF00BF00F09CFF11E000BF45
:104C1000FCF750FF00BF0098FBF7AEFA00BF08E0BA
:104C200000BFFCF747FF00BF0098FBF7A5FA00BFE5
:104C300000BF00BF43F6FF20A8F80000002047E7B0
:104C400000BF029F0FB1BD6800E00025002D7FF47A
:104C500073AF00BF00BF00BFFBF78AFA009000BF30
:104C6000FCF70EFF00BF19480078401E1749087076
:104C70000846007808B900F0A1FF00BFFCF71AFF52
:104C800000BF0098FBF778FA00BF00BF00BF0AF42E
:104C9000004008B9FEF72AFA00BF00BFFBF768FA28
:104CA000009000BFFCF7ECFE00BF206A049000BF3C
:104CB000FCF700FF00BF0098FBF75EFA00BF00BFE3
:104CC0000020A8F80000049802E700002C01002052
:104CD000F800002070B504460E46154634342665AB
:104CE000002060702070E560A078343C082816D25F
:104CF000DFE800F0040508090706101100BF00BF37
:104D000000BF0DE000BF204601F00AFD002084F83E
:104D1000360005E000BF042084F8360000E000BF44
:104D200000BF204600F096FC70BD0000002400BFCC
:104D30001DE000BF00BFFBF71BFA044600BFFCF7F5
:104D40009FFE00BF0A480068401C094908600948E6
:104D50000068401C0749086000BFFCF7ABFE00BFBD
:104D60002046FBF709FA00BF00BFFEF751F8E0E765
:104D7000E00000204401002010B58AB00446002065
:104D80000E4908600B2000210591CDE9070406912A
:104D900008460B4909680B4A12680B4B1B68CDE9A2
:104DA0000132CDE903101F200023084A08A100901A
:104DB0000C48FEF7EFFB0AB010BD0000E000002039
:104DC00060BA00085CBA000858BA00082D4D000807
:104DD00075432F4F532D4949492049646C65205430
:104DE00061736B00484600202DE9F84F04460D46DC
:104DF00016461F46DDE90BABDDF82890DDF8348060
:104E00000020009000BF00BFFBF7B2F9009000BF88
:104E1000FCF736FE00BF2C4800882C4909888842E0
:104E20003EDA29480088401C274908802848008825
:104E30000988884203DA24480088254908802548E3
:104E40000068046023480068856022480068C660E6
:104E50002048006807821F480068C0F814901D4869
:104E60000068A0F818A01B480068C0F81CB01948DA
:104E700000684068174908600120174908811748F1
:104E800008604860002000F0B3FC1548007818B1B5
:104E900013480078134908700020A8F8000008E0C3
:104EA00011480088401C1049088044F25360A8F85B
:104EB000000000BFFCF7FEFD00BF0098FBF75CF9A7
:104EC00000BF00BFBDE8F88FF80000206CBA0008F2
:104ED000FA000020F0000020E447002010470020E6
:104EE0001201002014010020FC0000203EB55948AA
:104EF00000680068584A811A904279D00FDC5749FF
:104F0000084400283ED056490844A8B155490844F1
:104F1000002860D05449084400286AD13FE0534833
:104F20000844002850D052490844002862D0514912
:104F300008440028F1D110E002A8464D00902D68E9
:104F4000EB69444D2D682A8B424D2D686969414DAE
:104F50002D68A868FFF780FD7AE002A93D48006847
:104F6000C0693C4DCDE900012D682B8B394D2D6872
:104F70002A8A384D2D68E968364D2D68A86800F0FA
:104F800067FC65E0334B1B68DA69324B1B68198B91
:104F9000304B1B68986802AB00F0B0FE58E002A9E5
:104FA0002C480068C0692B4DCDE900012D682B8B82
:104FB000284D2D682A8A274D2D68E968254D2D68D2
:104FC000A86801F077FA43E022490968886802A9D5
:104FD00001F0B4FB3CE01F4B1B68DA691D4B1B68FA
:104FE000198B1C4B1B68986802AB01F071FC2FE019
:104FF00007E02CE017490968886802A901F03CFF26
:1050000026E01D49097801EB41011C4A02EB8100B1
:1050100000F0F2FD0F48006802AB0021C269184899
:1050200001F056FC17480068401E16490860084603
:10503000006858B9144800680860FCF7AFFD0446E2
:1050400002AB22460021114801F042FC00E000BF03
:1050500000BF3EBDF40000205449434BADBAB2BE80
:105060000DF90BFAF2F8F7FF0006F6FF00F7FDF76F
:1050700000FFEFFF03FE0FFE14010020E4470020B5
:105080002C4A0020800100207C010020F44A0020EE
:10509000002700BF56E0002652E000BF00BFFBF72C
:1050A00067F8074600BFFCF7EBFC00BF2648008806
:1050B00098B90020254908810860486000F0AAFBE3
:1050C00000BFFCF7F7FC00BF3846FBF755F800BF00
:1050D00000BFFEF70BF8012632E000BFFCF7EAFC48
:1050E00000BF3846FBF748F800BF00BFFCF756FD8D
:1050F0000546FFF7FBFEFCF751FD441B1448006812
:10510000A04201D21248046000BF00BFFBF730F894
:10511000074600BFFCF7B4FC00BF0E4800684068BB
:105120000C49086008480088401E0749088000BFF5
:10513000FCF7C0FC00BF3846FBF71EF800BF00BFFD
:10514000002EAAD0A7E70000F8000020E4470020C6
:1051500000010020F4000020F0B589B005460020D1
:10516000314908803148006820B944F252602880F3
:1051700009B0F0BD2E480088022803DA44F25460DA
:105180002880F5E700202B49086028480468264657
:10519000203600270CE0284820600020A060E06056
:1051A000208260612083666020342036781C87B2BC
:1051B0001F4800888742EEDB203C1C48066866607A
:1051C0001E4806601E48066000201E4908801E49D1
:1051D00008801E48006818B944F255602880C7E767
:1051E0001B4800681B490968884203D244F2566094
:1051F0002880BDE7032000210591CDE90705069130
:1052000013480068144A1268104B1B68CDE903016B
:10521000CDE9013200910B46104A11A11748FEF763
:10522000B9F900BFA4E70000FC00002068BA00083C
:105230006CBA0008000100204E4F4E45F0000020DF
:10524000F4000020F8000020FA00002074BA0008E2
:105250007CBA0008B4BA000878BA00089150000877
:1052600075432F4F532D49494920495352205175B9
:10527000657565205461736B0000000010470020C5
:1052800070B501461A4D2D681DB945F21E750D8089
:1052900070BD184D2D881DB945F21D750D80F7E7BD
:1052A000134D28682A681032124D2D886D1EACB23D
:1052B000002308E00260002545600581C5601030CC
:1052C00010325D1CABB2A342F4DB002505604560E3
:1052D0000581C560064D2D68074E3560054D2D884A
:1052E000B5800025F58035810D8000BFD0E7000036
:1052F00098BA000890BA0008D847002010B50146B7
:1053000048894B89002B17DD0A680C4B1B6813601A
:105310000A4C4B6823602346DB884C891B1B074CD7
:10532000E38023469B884C892344044CA3800023BC
:105330004B818B810B604B6010BD0000D847002073
:10534000F0B504460D46608940B90020288002B1BE
:10535000106046F2925018800020F0BD61684E68DF
:10536000088928800AB1C8681060086860606068B1
:1053700018B900202060608102E06089401E6081D1
:10538000084800680860074801608088401C054F95
:10539000B8803846C088401EF8800020188030460B
:1053A000DBE70000D8470020018100224281828192
:1053B00002604260704700002DE9F0410D46DDE9D2
:1053C0000674B0F80AC0B0F80880C44505DB46F2A0
:1053D000935CA4F800C0BDE8F081DFF8DCC0BCF845
:1053E00004C0BCF1000F04D145F21D7CA4F800C03C
:1053F000F1E7DFF8C4C0DCF80010DFF8BC80D1F8BA
:1054000000C0C8F800C0C446BCF804C0ACF1010C30
:10541000A8F804C0C446BCF806C00CF1010CA8F8FA
:1054200006C0C446BCF808C0B8F80680C44507DA10
:10543000DFF884C0BCF806C0DFF87C80A8F808C09C
:10544000B0F80AC0BCF1000F0AD1016041604FF012
:10545000010CA0F80AC04FF0000CC1F800C017E022
:1054600003F0100CBCF1000F07D106683160016039
:105470004FF0000CC1F800C004E0D0F804C0C1F83F
:1054800000C04160B0F80AC00CF1010CA0F80AC0DD
:10549000B0F80CC0B0F80A80C44503DAB0F80AC00E
:1054A000A0F80CC04D600A81CF604FF0000CA4F84A
:1054B00000C000BF8FE70000D84700200021034A4A
:1054C0001160034A11800180704700000C01002028
:1054D000100100202DE9F04105460C4616461F46F6
:1054E0001548006880F8346000201349096881F885
:1054F000350039461048006800F00EFF6CB104F129
:105500000808EC60012229460B48006800F016F8F4
:105510002946404600F06BF806E00020064909687D
:10552000C88705490968086303480168204600F0F8
:1055300019F8BDE8F08100008401002010B5C28791
:10554000016300230AE000244C600C600C614C6194
:105550000C83CC61886020315C1CA3B29342F2DBE7
:1055600010BD000030B548B14568C1F8C45000F125
:105570000804226893681D6AC56113E091F83450ED
:10558000022D02D0072D08D103E007A5C1F8C450B1
:1055900007E007A5C1F8C45003E008A5C1F8C4504E
:1055A00000BF00BF30BD00005461736B205100008C
:1055B0005461736B2053656D0000000020000000F3
:1055C00030B507A5C1F8C45000F1080422681AB12B
:1055D00093681D6AC56101E001A5C56130BD000089
:1055E0002000000000210160416001817047F0B59A
:1055F0008E6896F8375007893FB901270781002741
:105600004F600F600160416023E007897F1C0781C4
:10561000026806E0946894F83770AF4200DD02E05B
:105620005268002AF6D100BF32B900274F604368A4
:105630000B60596041600CE017682FB911600027BA
:105640000F604A60016004E013680B604A605960B3
:105650001160F0BD2DE9F0410446256BE68F0AE0AC
:10566000D5F80C8008F108072946384600F00AF8FA
:105670002035701E86B2002EF2DC0020E087206309
:10568000BDE8F08110B50489012C03D10024046029
:10569000446011E00C6824B94A6800241460026078
:1056A0000AE04C6824B90B6800245C60436003E0A6
:1056B0000B684A685A6013600489641E04810024E0
:1056C0004C600C6010BD2DE9F84306460C461746A9
:1056D0009846089D94F83600082850D2DFE800F07C
:1056E0000405080906072B2C00BF00BF00BF47E0D8
:1056F00000BF94F83400032807D143463A462146B8
:105700003046009500F03FF803E0E765A4F86080BC
:10571000256436B12046FFF79DFF21463046FFF74E
:105720004FFF204600F0FCFF00203434A070607072
:1057300004F8340924E000BF94F83400032807D1AA
:1057400043463A4621463046009500F01CF803E0F7
:10575000E765A4F860802564204601F047FD36B176
:105760002046FFF777FF21463046FFF729FF042048
:105770003434A0700020607004F8340900E000BFE9
:1057800000BFBDE8F883F0B50446059E086BCD8FD9
:105790000AE0C768A74204D1046142610383C6617D
:1057A00004E020306F1EBDB2002DF2DC00BFF0BD62
:1057B00070B50025074C03E005F12000C5B2241D9B
:1057C00020680028F8D02068FAF7DDFC2844C5B22C
:1057D000284670BDC0000020002004E00021034ADC
:1057E00042F82010401C0028F8D07047C00000206C
:1057F00030B5420900F01F030121C3F11F04A1408D
:10580000034C54F822400C43014D45F8224030BD72
:10581000C000002030B5420900F01F030121C3F190
:105820001F04A140034C54F822408C43014D45F81D
:10583000224030BDC00000200021034A1160034A0D
:105840001180018070470000180100201C01002019
:105850002DE9F04F85B007468A4693461C46002046
:10586000029000BF00BF00BFFAF782FC029000BFA9
:10587000FCF706F900BF56480078401C54490870F0
:1058800008460078012801D100F08AF900BFFCF732
:1058900011F900BF0298FAF76FFC00BF00BF00BF0C
:1058A00007F10806308900284CD104F0100010B927
:1058B0004FF0000801E04FF01008DDE90E0143460B
:1058C0005A46CDE90001514607F12000FFF774FD6B
:1058D00000BF00BF00BFFAF74BFC029000BFFCF70F
:1058E000CFF800BF3A480078401E39490870084692
:1058F0000078D0B900F062F93648008800280BDD46
:1059000000BFFCF7D7F800BF0298FAF735FC00BFDC
:1059100000BF00F017F911E000BFFCF7CBF800BFA3
:105920000298FAF729FC00BF08E000BFFCF7C2F8B4
:1059300000BF0298FAF720FC00BF00BF00BF05B00F
:10594000BDE8F08F04F4007008B1358900E001254E
:10595000D6F8009011E0D9F808000390D9F80400B7
:1059600004900E985B465246009038460399FFF724
:10597000AAFEDDF81090681E85B2002DEBD100BFA5
:1059800000BF00BFFAF7F4FB029000BFFCF778F805
:1059900000BF0F480078401E0D4908700846007887
:1059A00008B900F00BF900BFFCF784F800BF0298BB
:1059B000FAF7E2FB00BF00BF00BF04F4004008B9E3
:1059C000FDF794FB00210F98018000BFB7E70000AE
:1059D0002C010020F800002000210AE001EB410228
:1059E000054B03EB820000220281026042604A1CE8
:1059F000D1B22029F2D37047E447002010B5044605
:105A000094F83700FFF7F4FE94F837000549097859
:105A1000884203D1204600F027F802E0204600F03B
:105A200003F810BD1201002010B590F8373003EBD9
:105A300043030C4C04EB83010B893BB901230B811D
:105A40000023C36003610860486009E00B895B1CA8
:105A50000B810B68C360002303610A681061086052
:105A600010BD0000E447002010B590F8373003EB7C
:105A700043030B4C04EB83010B893BB901230B81DE
:105A80000023C36003610860486008E00B895B1C69
:105A90000B810023C3604A680261D060486010BD7A
:105AA000E447002010B501460C8924B1012C03D035
:105AB000022C0CD101E000BF14E008684A680261C2
:105AC0000024C4601461D0600A6048600AE008687D
:105AD0004A68C36800241C61C4600261D0600B6026
